{
  "address": "0xE4b85C223c384BB51b6383566b4C065Dc8B065FC",
  "abi": [
    {
      "inputs": [
        {
          "internalType": "string",
          "name": "_name",
          "type": "string"
        }
      ],
      "stateMutability": "nonpayable",
      "type": "constructor"
    },
    {
      "anonymous": false,
      "inputs": [
        {
          "indexed": true,
          "internalType": "address",
          "name": "previousOwner",
          "type": "address"
        },
        {
          "indexed": true,
          "internalType": "address",
          "name": "newOwner",
          "type": "address"
        }
      ],
      "name": "OwnershipTransferred",
      "type": "event"
    },
    {
      "inputs": [],
      "name": "getHello",
      "outputs": [
        {
          "internalType": "string",
          "name": "",
          "type": "string"
        }
      ],
      "stateMutability": "view",
      "type": "function"
    },
    {
      "inputs": [],
      "name": "owner",
      "outputs": [
        {
          "internalType": "address",
          "name": "",
          "type": "address"
        }
      ],
      "stateMutability": "view",
      "type": "function"
    },
    {
      "inputs": [],
      "name": "renounceOwnership",
      "outputs": [],
      "stateMutability": "nonpayable",
      "type": "function"
    },
    {
      "inputs": [
        {
          "internalType": "string",
          "name": "_name",
          "type": "string"
        }
      ],
      "name": "setName",
      "outputs": [],
      "stateMutability": "nonpayable",
      "type": "function"
    },
    {
      "inputs": [
        {
          "internalType": "address",
          "name": "newOwner",
          "type": "address"
        }
      ],
      "name": "transferOwnership",
      "outputs": [],
      "stateMutability": "nonpayable",
      "type": "function"
    }
  ],
  "transactionHash": "0x119947abae16da91818a5358cb38e36757571a39f046f139bbf2f092ce17e54b",
  "args": [
    "Don Diego de La Vega"
  ],
  "numDeployments": 1,
  "solcInputHash": "beccab90b41ca85a54d1b18cb742ca01",
  "bytecode": "0x60806040523480156200001157600080fd5b50604051620011ad380380620011ad8339818101604052810190620000379190620002cf565b620000576200004b6200007060201b60201c565b6200007860201b60201c565b80600190816200006891906200056b565b505062000652565b600033905090565b60008060009054906101000a900473ffffffffffffffffffffffffffffffffffffffff169050816000806101000a81548173ffffffffffffffffffffffffffffffffffffffff021916908373ffffffffffffffffffffffffffffffffffffffff1602179055508173ffffffffffffffffffffffffffffffffffffffff168173ffffffffffffffffffffffffffffffffffffffff167f8be0079c531659141344cd1fd0a4f28419497f9722a3daafe3b4186f6b6457e060405160405180910390a35050565b6000604051905090565b600080fd5b600080fd5b600080fd5b600080fd5b6000601f19601f8301169050919050565b7f4e487b7100000000000000000000000000000000000000000000000000000000600052604160045260246000fd5b620001a5826200015a565b810181811067ffffffffffffffff82111715620001c757620001c66200016b565b5b80604052505050565b6000620001dc6200013c565b9050620001ea82826200019a565b919050565b600067ffffffffffffffff8211156200020d576200020c6200016b565b5b62000218826200015a565b9050602081019050919050565b60005b838110156200024557808201518184015260208101905062000228565b60008484015250505050565b6000620002686200026284620001ef565b620001d0565b90508281526020810184848401111562000287576200028662000155565b5b6200029484828562000225565b509392505050565b600082601f830112620002b457620002b362000150565b5b8151620002c684826020860162000251565b91505092915050565b600060208284031215620002e857620002e762000146565b5b600082015167ffffffffffffffff8111156200030957620003086200014b565b5b62000317848285016200029c565b91505092915050565b600081519050919050565b7f4e487b7100000000000000000000000000000000000000000000000000000000600052602260045260246000fd5b600060028204905060018216806200037357607f821691505b6020821081036200038957620003886200032b565b5b50919050565b60008190508160005260206000209050919050565b60006020601f8301049050919050565b600082821b905092915050565b600060088302620003f37fffffffffffffffffffffffffffffffffffffffffffffffffffffffffffffffff82620003b4565b620003ff8683620003b4565b95508019841693508086168417925050509392505050565b6000819050919050565b6000819050919050565b60006200044c62000446620004408462000417565b62000421565b62000417565b9050919050565b6000819050919050565b62000468836200042b565b62000480620004778262000453565b848454620003c1565b825550505050565b600090565b6200049762000488565b620004a48184846200045d565b505050565b5b81811015620004cc57620004c06000826200048d565b600181019050620004aa565b5050565b601f8211156200051b57620004e5816200038f565b620004f084620003a4565b8101602085101562000500578190505b620005186200050f85620003a4565b830182620004a9565b50505b505050565b600082821c905092915050565b6000620005406000198460080262000520565b1980831691505092915050565b60006200055b83836200052d565b9150826002028217905092915050565b620005768262000320565b67ffffffffffffffff8111156200059257620005916200016b565b5b6200059e82546200035a565b620005ab828285620004d0565b600060209050601f831160018114620005e35760008415620005ce578287015190505b620005da85826200054d565b8655506200064a565b601f198416620005f3866200038f565b60005b828110156200061d57848901518255600182019150602085019450602081019050620005f6565b868310156200063d578489015162000639601f8916826200052d565b8355505b6001600288020188555050505b505050505050565b610b4b80620006626000396000f3fe608060405234801561001057600080fd5b50600436106100575760003560e01c8063715018a61461005c5780638da5cb5b146100665780638da9b77214610084578063c47f0027146100a2578063f2fde38b146100be575b600080fd5b6100646100da565b005b61006e6100ee565b60405161007b9190610368565b60405180910390f35b61008c610117565b6040516100999190610413565b60405180910390f35b6100bc60048036038101906100b7919061057e565b61013f565b005b6100d860048036038101906100d391906105f3565b61015a565b005b6100e26101dd565b6100ec600061025b565b565b60008060009054906101000a900473ffffffffffffffffffffffffffffffffffffffff16905090565b6060600160405160200161012b919061076f565b604051602081830303815290604052905090565b6101476101dd565b80600190816101569190610945565b5050565b6101626101dd565b600073ffffffffffffffffffffffffffffffffffffffff168173ffffffffffffffffffffffffffffffffffffffff16036101d1576040517f08c379a00000000000000000000000000000000000000000000000000000000081526004016101c890610a89565b60405180910390fd5b6101da8161025b565b50565b6101e561031f565b73ffffffffffffffffffffffffffffffffffffffff166102036100ee565b73ffffffffffffffffffffffffffffffffffffffff1614610259576040517f08c379a000000000000000000000000000000000000000000000000000000000815260040161025090610af5565b60405180910390fd5b565b60008060009054906101000a900473ffffffffffffffffffffffffffffffffffffffff169050816000806101000a81548173ffffffffffffffffffffffffffffffffffffffff021916908373ffffffffffffffffffffffffffffffffffffffff1602179055508173ffffffffffffffffffffffffffffffffffffffff168173ffffffffffffffffffffffffffffffffffffffff167f8be0079c531659141344cd1fd0a4f28419497f9722a3daafe3b4186f6b6457e060405160405180910390a35050565b600033905090565b600073ffffffffffffffffffffffffffffffffffffffff82169050919050565b600061035282610327565b9050919050565b61036281610347565b82525050565b600060208201905061037d6000830184610359565b92915050565b600081519050919050565b600082825260208201905092915050565b60005b838110156103bd5780820151818401526020810190506103a2565b60008484015250505050565b6000601f19601f8301169050919050565b60006103e582610383565b6103ef818561038e565b93506103ff81856020860161039f565b610408816103c9565b840191505092915050565b6000602082019050818103600083015261042d81846103da565b905092915050565b6000604051905090565b600080fd5b600080fd5b600080fd5b600080fd5b7f4e487b7100000000000000000000000000000000000000000000000000000000600052604160045260246000fd5b61048b826103c9565b810181811067ffffffffffffffff821117156104aa576104a9610453565b5b80604052505050565b60006104bd610435565b90506104c98282610482565b919050565b600067ffffffffffffffff8211156104e9576104e8610453565b5b6104f2826103c9565b9050602081019050919050565b82818337600083830152505050565b600061052161051c846104ce565b6104b3565b90508281526020810184848401111561053d5761053c61044e565b5b6105488482856104ff565b509392505050565b600082601f83011261056557610564610449565b5b813561057584826020860161050e565b91505092915050565b6000602082840312156105945761059361043f565b5b600082013567ffffffffffffffff8111156105b2576105b1610444565b5b6105be84828501610550565b91505092915050565b6105d081610347565b81146105db57600080fd5b50565b6000813590506105ed816105c7565b92915050565b6000602082840312156106095761060861043f565b5b6000610617848285016105de565b91505092915050565b7f48656c6c6f200000000000000000000000000000000000000000000000000000815250565b7f4e487b7100000000000000000000000000000000000000000000000000000000600052602260045260246000fd5b6000600282049050600182168061068d57607f821691505b6020821081036106a05761069f610646565b5b50919050565b600081905092915050565b60008190508160005260206000209050919050565b600081546106d381610675565b6106dd81866106a6565b945060018216600081146106f8576001811461070d57610740565b60ff1983168652811515820286019350610740565b610716856106b1565b60005b8381101561073857815481890152600182019150602081019050610719565b838801955050505b50505092915050565b7f2021000000000000000000000000000000000000000000000000000000000000815250565b600061077a82610620565b60068201915061078a82846106c6565b915061079582610749565b60028201915081905092915050565b60006020601f8301049050919050565b600082821b905092915050565b6000600883026107f17fffffffffffffffffffffffffffffffffffffffffffffffffffffffffffffffff826107b4565b6107fb86836107b4565b95508019841693508086168417925050509392505050565b6000819050919050565b6000819050919050565b600061084261083d61083884610813565b61081d565b610813565b9050919050565b6000819050919050565b61085c83610827565b61087061086882610849565b8484546107c1565b825550505050565b600090565b610885610878565b610890818484610853565b505050565b5b818110156108b4576108a960008261087d565b600181019050610896565b5050565b601f8211156108f9576108ca816106b1565b6108d3846107a4565b810160208510156108e2578190505b6108f66108ee856107a4565b830182610895565b50505b505050565b600082821c905092915050565b600061091c600019846008026108fe565b1980831691505092915050565b6000610935838361090b565b9150826002028217905092915050565b61094e82610383565b67ffffffffffffffff81111561096757610966610453565b5b6109718254610675565b61097c8282856108b8565b600060209050601f8311600181146109af576000841561099d578287015190505b6109a78582610929565b865550610a0f565b601f1984166109bd866106b1565b60005b828110156109e5578489015182556001820191506020850194506020810190506109c0565b86831015610a0257848901516109fe601f89168261090b565b8355505b6001600288020188555050505b505050505050565b7f4f776e61626c653a206e6577206f776e657220697320746865207a65726f206160008201527f6464726573730000000000000000000000000000000000000000000000000000602082015250565b6000610a7360268361038e565b9150610a7e82610a17565b604082019050919050565b60006020820190508181036000830152610aa281610a66565b9050919050565b7f4f776e61626c653a2063616c6c6572206973206e6f7420746865206f776e6572600082015250565b6000610adf60208361038e565b9150610aea82610aa9565b602082019050919050565b60006020820190508181036000830152610b0e81610ad2565b905091905056fea264697066735822122010504003f34c7d4800a8da46c33df115a80fb2aba5b30bf47b4adb4b45495c1864736f6c63430008110033",
  "devdoc": {
    "kind": "dev",
    "methods": {
      "owner()": {
        "details": "Returns the address of the current owner."
      },
      "renounceOwnership()": {
        "details": "Leaves the contract without owner. It will not be possible to call `onlyOwner` functions anymore. Can only be called by the current owner. NOTE: Renouncing ownership will leave the contract without an owner, thereby removing any functionality that is only available to the owner."
      },
      "transferOwnership(address)": {
        "details": "Transfers ownership of the contract to a new account (`newOwner`). Can only be called by the current owner."
      }
    },
    "version": 1
  },
  "userdoc": {
    "kind": "user",
    "methods": {},
    "version": 1
  },
  "storageLayout": {
    "storage": [
      {
        "astId": 7,
        "contract": "contracts/SayHello.sol:SayHello",
        "label": "_owner",
        "offset": 0,
        "slot": "0",
        "type": "t_address"
      },
      {
        "astId": 141,
        "contract": "contracts/SayHello.sol:SayHello",
        "label": "s_name",
        "offset": 0,
        "slot": "1",
        "type": "t_string_storage"
      }
    ],
    "types": {
      "t_address": {
        "encoding": "inplace",
        "label": "address",
        "numberOfBytes": "20"
      },
      "t_string_storage": {
        "encoding": "bytes",
        "label": "string",
        "numberOfBytes": "32"
      }
    }
  }
}